{
  "contractName": "DigitalCertification",
  "abi": [
    {
      "inputs": [],
      "payable": false,
      "stateMutability": "nonpayable",
      "type": "constructor"
    },
    {
      "constant": true,
      "inputs": [
        {
          "internalType": "address",
          "name": "",
          "type": "address"
        }
      ],
      "name": "authorizedAccounts",
      "outputs": [
        {
          "internalType": "bool",
          "name": "",
          "type": "bool"
        }
      ],
      "payable": false,
      "stateMutability": "view",
      "type": "function"
    },
    {
      "constant": true,
      "inputs": [],
      "name": "manager",
      "outputs": [
        {
          "internalType": "address",
          "name": "",
          "type": "address"
        }
      ],
      "payable": false,
      "stateMutability": "view",
      "type": "function"
    },
    {
      "constant": true,
      "inputs": [],
      "name": "totalCertificatesIssued",
      "outputs": [
        {
          "internalType": "uint256",
          "name": "",
          "type": "uint256"
        }
      ],
      "payable": false,
      "stateMutability": "view",
      "type": "function"
    },
    {
      "constant": false,
      "inputs": [
        {
          "internalType": "string",
          "name": "_merkleRoot",
          "type": "string"
        },
        {
          "internalType": "uint128",
          "name": "_batchCount",
          "type": "uint128"
        }
      ],
      "name": "storeMerkleRoot",
      "outputs": [],
      "payable": false,
      "stateMutability": "nonpayable",
      "type": "function"
    },
    {
      "constant": true,
      "inputs": [
        {
          "internalType": "string",
          "name": "_certificateHash",
          "type": "string"
        }
      ],
      "name": "checkRevokeStatus",
      "outputs": [
        {
          "internalType": "bool",
          "name": "",
          "type": "bool"
        }
      ],
      "payable": false,
      "stateMutability": "view",
      "type": "function"
    },
    {
      "constant": true,
      "inputs": [
        {
          "internalType": "string",
          "name": "_merkleRoot",
          "type": "string"
        }
      ],
      "name": "checkMerkleRoot",
      "outputs": [
        {
          "internalType": "bool",
          "name": "",
          "type": "bool"
        }
      ],
      "payable": false,
      "stateMutability": "view",
      "type": "function"
    },
    {
      "constant": false,
      "inputs": [
        {
          "internalType": "string",
          "name": "_certificateHash",
          "type": "string"
        }
      ],
      "name": "revokeCertificate",
      "outputs": [],
      "payable": false,
      "stateMutability": "nonpayable",
      "type": "function"
    },
    {
      "constant": false,
      "inputs": [
        {
          "internalType": "address",
          "name": "_accountAddress",
          "type": "address"
        }
      ],
      "name": "addNewAccount",
      "outputs": [],
      "payable": false,
      "stateMutability": "nonpayable",
      "type": "function"
    },
    {
      "constant": false,
      "inputs": [
        {
          "internalType": "address",
          "name": "_accountAddress",
          "type": "address"
        }
      ],
      "name": "removeAccount",
      "outputs": [],
      "payable": false,
      "stateMutability": "nonpayable",
      "type": "function"
    }
  ],
  "bytecode": "0x608060405234801561001057600080fd5b50600380546001600160a01b0319163317908190556001600160a01b03166000908152600260205260409020805460ff191660011790556107b3806100566000396000f3fe608060405234801561001057600080fd5b50600436106100925760003560e01c80635b6ad6db116100665780635b6ad6db1461024a578063714ae351146102ee578063a5f346e614610308578063c4740a951461032e578063f52590001461035457610092565b80628e07d214610097578063142e15421461014857806324ba5884146101ec578063481c6a7514610226575b600080fd5b610146600480360360408110156100ad57600080fd5b810190602081018135600160201b8111156100c757600080fd5b8201836020820111156100d957600080fd5b803590602001918460018302840111600160201b831117156100fa57600080fd5b91908080601f016020809104026020016040519081016040528093929190818152602001838380828437600092019190915250929550505090356001600160801b031691506103f89050565b005b6101466004803603602081101561015e57600080fd5b810190602081018135600160201b81111561017857600080fd5b82018360208201111561018a57600080fd5b803590602001918460018302840111600160201b831117156101ab57600080fd5b91908080601f0160208091040260200160405190810160405280939291908181526020018383808284376000920191909152509295506104d4945050505050565b6102126004803603602081101561020257600080fd5b50356001600160a01b03166105ac565b604080519115158252519081900360200190f35b61022e6105c1565b604080516001600160a01b039092168252519081900360200190f35b6102126004803603602081101561026057600080fd5b810190602081018135600160201b81111561027a57600080fd5b82018360208201111561028c57600080fd5b803590602001918460018302840111600160201b831117156102ad57600080fd5b91908080601f0160208091040260200160405190810160405280939291908181526020018383808284376000920191909152509295506105d0945050505050565b6102f661063b565b60408051918252519081900360200190f35b6101466004803603602081101561031e57600080fd5b50356001600160a01b0316610641565b6101466004803603602081101561034457600080fd5b50356001600160a01b03166106ae565b6102126004803603602081101561036a57600080fd5b810190602081018135600160201b81111561038457600080fd5b82018360208201111561039657600080fd5b803590602001918460018302840111600160201b831117156103b757600080fd5b91908080601f016020809104026020016040519081016040528093929190818152602001838380828437600092019190915250929550610718945050505050565b3360009081526002602052604090205460ff16151560011461044b5760405162461bcd60e51b815260040180806020018281038252603481526020018061074b6034913960400191505060405180910390fd5b60016000836040518082805190602001908083835b6020831061047f5780518252601f199092019160209182019101610460565b51815160209384036101000a60001901801990921691161790529201948552506040519384900301909220805460ff1916931515939093179092555050600480546001600160801b0392909216909101905550565b3360009081526002602052604090205460ff1615156001146105275760405162461bcd60e51b815260040180806020018281038252603481526020018061074b6034913960400191505060405180910390fd5b600180826040518082805190602001908083835b6020831061055a5780518252601f19909201916020918201910161053b565b51815160001960209485036101000a810191821691199290921617909152939091019586526040519586900301909420805495151560ff19909616959095179094555050600480549092019091555050565b60026020526000908152604090205460ff1681565b6003546001600160a01b031681565b60006001826040518082805190602001908083835b602083106106045780518252601f1990920191602091820191016105e5565b51815160209384036101000a600019018019909216911617905292019485525060405193849003019092205460ff16949350505050565b60045481565b6003546001600160a01b0316331461068a5760405162461bcd60e51b815260040180806020018281038252603481526020018061074b6034913960400191505060405180910390fd5b6001600160a01b03166000908152600260205260409020805460ff19166001179055565b6003546001600160a01b031633146106f75760405162461bcd60e51b815260040180806020018281038252603481526020018061074b6034913960400191505060405180910390fd5b6001600160a01b03166000908152600260205260409020805460ff19169055565b60008082604051808280519060200190808383602083106106045780518252601f1990920191602091820191016105e556fe596f7520617265206e6f7420617574686f72697a656420746f206361727279206f75742074686973207472616e73616374696f6ea265627a7a723158207025a95c4b4a0f7cae775f064951d94531b49fb9902ceb2e204f91d0fbd0480f64736f6c634300050c0032",
  "source": "pragma solidity >=0.4.22 <0.6.0;\n\ncontract DigitalCertification{\n    \n    mapping(string => bool) storedMerkleRoots;\n    mapping(string => bool) revokedCertificates;\n    mapping(address => bool) public authorizedAccounts;\n    \n    address public manager;\n    \n    uint256 public totalCertificatesIssued;\n    \n    constructor() public {\n        manager = msg.sender;\n        authorizedAccounts[manager] = true;\n    }\n    \n    modifier restricted(){\n        require(authorizedAccounts[msg.sender] == true, \"You are not authorized to carry out this transaction\");\n        _;\n    }\n    \n    function storeMerkleRoot(string memory _merkleRoot, uint128 _batchCount) public restricted\n                {\n                    storedMerkleRoots[_merkleRoot] = true;\n                    totalCertificatesIssued += _batchCount;\n                }\n\n    function checkRevokeStatus(string memory _certificateHash) public view returns(bool)\n                {\n                    return (revokedCertificates[_certificateHash]);\n                }\n                                        \n    function checkMerkleRoot(string memory _merkleRoot) public view returns(bool)\n                {\n                    return (storedMerkleRoots[_merkleRoot]);\n\n                }\n    \n    function revokeCertificate(string memory _certificateHash) public restricted\n                {\n                    revokedCertificates[_certificateHash] = true;\n                    totalCertificatesIssued--;\n                }\n                \n    function addNewAccount(address _accountAddress) public\n                {\n                    require(msg.sender == manager, \"You are not authorized to carry out this transaction\");\n                    authorizedAccounts[_accountAddress] = true;\n                }\n                \n    function removeAccount(address _accountAddress) public\n                {\n                    require(msg.sender == manager, \"You are not authorized to carry out this transaction\");\n                    delete authorizedAccounts[_accountAddress];\n                }\n                            \n}\n",
  "sourcePath": "/home/aditya/Documents/projects/Dcertify/contracts/dcertify.sol",
  "compiler": {
    "name": "solc",
    "version": "0.5.12+commit.7709ece9.Emscripten.clang"
  },
  "schemaVersion": "3.0.19",
  "updatedAt": "2020-03-01T13:34:06.235Z",
  "networkType": "ethereum",
  "devdoc": {
    "methods": {}
  },
  "userdoc": {
    "methods": {}
  }
}